:400000000010002011000000890300008903000010B500F0D9F9C04670B5134C23688022D20213432360182000F06AFA22680F4B134023600E4A0F4B1A6010220E4B1A6005
:40004000802212060D4B1A60002525600C4A0D4B1A600D49092000F011FA092000F0F8F90A4B1D6070BDC04600010B40FFFFFBFF0600008004010B400C02024008010B40DB
:40008000CF00008000000240110700000C020B4010B572B600240FE01D486200131959000B00411889881A5AC31858880004104300F064F90134E4B2012CEDD999231B0411
:4000C000144A1360EE210902134A1160134A1360134A1360134A1360134A117806230B43DBB213702023114A1360C4218902104A1160104A136003220F4B1A6021320F4BAB
:400100001A60D82212010E4B1A60FFF785FF10BDC4130000000001400C00014000500F4010500F4030500F4000700F4000000440080004401800044000010440080104405F
:400140000803044010B5064C2378002B07D1054B002B02D0044800E000BF0123237010BD4801002000000000B4130000084B10B5002B03D00749084800E000BF0748036880
:40018000002B00D110BD064B002BFBD09847F9E7000000004C010020B4130000C00000200000000000B587B062B600F027FB00F0A9FBC0B26128FAD10021603800F012F839
:4001C00000900191054A0F2102A800F0B5FC02A800F0AEFB024800F0ABFBE8E7B8130000C013000070B592B0012802D10123019301E002230193002901D15D4E00E05D4E9D
:4002000072B6182420E03300E340DB070CD4019A594D2B6893432B60322000F095FB019A2B6813432B600EE0019A534D2B6893432B60012000F088FB019A2B6813432B606C
:40024000272000F081FB013C002CDCDA9B20400000F07AFB00240AE000F0ACFA431E984102AB1855322000F06FFB013424B2082CF2DD052000F068FB0AE000F09BFA431E52
:40028000984102AB1855322000F05EFB013424B2112CF2DD052000F057FB0AE000F08AFA431E984102AB1855322000F04DFB013424B21A2CF2DD052000F046FB0AE000F0A6
:4002C00079FA431E984102AB1855322000F03CFB013424B2232CF2DD052000F035FB0AE000F068FA431E984102AB1855322000F02BFB013424B22C2CF2DD052000F024FBF2
:400300000AE000F057FA431E984102AB1855322000F01AFB013424B2352CF2DD052000F013FB0AE000F046FA431E984102AB1855322000F009FB013424B23C2CF2DD62B67B
:400340000023002000210FE002AAD25C002A08D004000D0024184D41012222431000290001E00018494101333C2BEDDD12B070BD01068000020680000001044010B50A00B8
:40038000002100F0D1FB10BD10B500F0A1FB03680C2B00D1FEE7FEE710B50300084A1068C318084A9A1A802A02DC054A136005E000F08EFB0C2303600120404210BDC046E2
:4003C000C4000020A001002070B50F4E0F4D13E029686B68AC68002202E001C901C30432A242FAD1E868002202E0002102C304328242FAD11035013E002EE9D100F06EFBD4
:40040000FFF7D0FEFEE7C046010000005814000010B500230AE0032B03D89A000949505800E009489900094A885001332F2BF2D9FFF72EFE8022D205116801230B431360EA
:4004400010BDC0460000000089030000000000201F2318401E3B8340014A13607047C04600E100E01F2318401E3B8340014A13607047C04680E100E001BE704770B50400FA
:400480000D001F2802D90020FFF7F6FF1034A40080239B059C4664442068256070BDC04670B504000E00032902D90020FFF7E4FF1F2C02D90020FFF7DFFF03252540ED0042
:4004C000063500F04BFAA408A400074B9C46644421680323AB4099430B003100A9401943216000F03FFA70BD00E400E010B5034B1B7B584300F028FA10BDC046C8000020BD
:40050000F0B557464E46C0B483B0040000F026FA0190E71E2D2F74D83F4B1B78DBB29C4208D83E4B1B78DBB29A463D4B1B78DBB2994631E03B4B1B78DBB29C4208D83A4B7A
:400540001B78DBB29A46394B1B78DBB2994623E0374B1B78DBB29C4208D8364B1B78DBB29A46354B1B78DBB2994615E0334B1B78DBB29C4208D8324B1B78DBB29A46314B4B
:400580001B78DBB2994607E02F4B1B78DBB29A462E4B1B78DBB299462D4BDE5D2F2E09D92A2C07D919222B4B1A60052000F0CCF9192503E0274B1D683F231D40B54206D989
:4005C000234BDA5D234B1A60052000F0BDF91F4B9C4664442378DBB21F4A13601F4B52461A601F4B4A461A600520FFF77FFFB5420AD2174BDA5D174B1A60052000F0A4F928
:4006000002E00020FFF738FF019800F0ABF903B00CBC91469A46F0BDC0F1FF0FC1F1FF0FC2F1FF0FC3F1FF0FC4F1FF0FC5F1FF0FC6F1FF0FC7F1FF0FC8F1FF0FC9F1FF0FDC
:40064000CAF1FF0FCBF1FF0FCCF1FF0FCDF1FF0FD01300002CFF0B4028FF0B401CFF0B4020FF0B40034B1868C0231B02184000D00120704700010B4010B500F06FF9044A30
:400680001368C02109020B43136000F06BF910BD00010B4010B500F061F908490A68084B1A408024E40122430A600A6813408022120213430B6000F055F910BD00010B403B
:4006C000FF3FFFFF70B5050000F048F90400FFF7C9FF002803D0FFF7DDFF012100E0002108482840084A1568084B2B40184310601368012901D1FFF7BFFF200000F032F93B
:4007000070BDC0460404040010020B40FBFBFBFF10B5244B1B685B0715D5234B1B685B070ED5224BD969042001401F4C22688A432260DA698243DA611B69002B00D09847FB
:400740000420FFF7BFFF174B1B685B0518D5164B1B685B0510D5154BD9698022D2001140114802688A430260D969114A0A40DA615B69002B00D098478020C000FFF7A2FF36
:40078000084B1B685B030CD5074B1B685B0304D5064B9B69002B00D098478020C002FFF791FF10BD10020B40DC00002064010020FFFBFFFF024B1B68012018407047C04658
:4007C0000401044010B50B20FFF742FE10BDC04610B500F081F810BD10B500F01FF810BD10B5054A1368802109060B431360FFF7E9FFFFF7EDFF10BD0000074010B5064B39
:400800001B78002B04D1FFF7E7FF0122024B1A70FFF7E6FF10BDC0468401002010B51A4A1A4B1A6000241A4B1C601A4A1A4B1A601A4B1B4A136007211A4A11601A4A14609A
:4008400006391A4A11601A4A13601A4B1C600B20FFF708FE03210B20FFF722FE16490B20FFF70CFE154B1C60154B1C60154B1C60154B1C600422154B1A60154B1C601A68C8
:40088000144B1A8010BDC0460B000002000007404000074001000A004800074007000080000307400403074010030740440007400002074004020740A5090000880E0740D2
:4008C000C80E0740480F0740080F0740C80F0740880F07408C010020064A1168064B0B40902109040B431360044B1A88044B1A607047C04600000140FFFF0FFF8C010020E1
:40090000880F074010B500F037F8002802D000F02DF800E00020054B1A68D8239B001A4203D01A00014B1A60002010BDC00F074070B50500002402E000F026F80134285D74
:400940000028F9D170BDC0460230800804D0C0460138FDD1C046C046C0467047EFF3108072B6704780F310887047C046014B18687047C04640030740024B1B680F2018406B
:400980007047C04608030740044B1B680F221340082BF9D0024B18607047C046080207404002074010B5034B1B68002B00D0984710BDC04688010020002243088B4274D30D
:4009C00003098B425FD3030A8B4244D3030B8B4228D3030C8B420DD3FF22090212BA030C8B4202D31212090265D0030B8B4219D300E0090AC30B8B4201D3CB03C01A5241F8
:400A0000830B8B4201D38B03C01A5241430B8B4201D34B03C01A5241030B8B4201D30B03C01A5241C30A8B4201D3CB02C01A5241830A8B4201D38B02C01A5241430A8B42CE
:400A400001D34B02C01A5241030A8B4201D30B02C01A5241CDD2C3098B4201D3CB01C01A524183098B4201D38B01C01A524143098B4201D34B01C01A524103098B4201D302
:400A80000B01C01A5241C3088B4201D3CB00C01A524183088B4201D38B00C01A524143088B4201D34B00C01A5241411A00D20146524110467047FFE701B5002000F006F893
:400AC00002BDC0460029F7D076E770477047C046014B18687047C046400100200E4B70B500251E000D4CE41AA410A54204D0AB00F35898470135F8E700F09CFC084B002515
:400B00001E00084CE41AA410A54204D0AB00F35898470135F8E770BD4014000040140000401400004814000003008218934202D019700133FAE770470CB430B5164B9DB07B
:400B40000C1E1D6804DA8B2301202B6040421DE0822302A99B008B810023029008619C4200D0631E8B604B6101235B42CB81209A21AB2800019300F073F8431C01DA8B23A2
:400B80002B60002C02D00023029A13701DB030BC08BC02B01847C04640010020F0B58E6885B007000C00039201939E4243D890238A89DB001A423ED00325096923680198A5
:400BC0005B1A029363695D43EB0F5D19029B6D1001331B18AB4200D91D00530510D52900380000F041FB061E14D0029A216900F0D0FAA289194B134080221343A38112E009
:400C00002A00380000F090FB061E0CD12169380000F0DEFA0C23402201203B60A38940421343A38117E0029B2661F61826606561019EED1AA560019BB34200D21E00320004
:400C40000399206800F0AEFA0020A3689B1BA36023689E19266005B0F0BDC0467FFBFFFFF0B59FB0029005938B890F0016001B0610D50B69002B0DD1402100F0F5FA38607A
:400C80003861002804D10C23029A01381360D8E040237B61002306AD6B6120336B761033AB7634002378002B03D1A31B049312D003E0252BF9D00134F4E7A31B32003900BC
:400CC0000298FFF76BFF431C00D1B4E06A69049B944663446B612378002B00D1ABE00122002352426A6002A95432521801342B60EB60AB601370AB65534E217805223000DC
:400D000000F03CFA002807D00123801B83402A68013413432B60EFE72B68DA0604D55322202102A8121811701A0704D553222B2102A81218117022782A2A03D0099B0020A2
:400D40000A210EE0059A111D12680591002A01DB099204E05242EA60022213432B6001340BE02278303A092A04D84B4301349B180120F6E7002800D0099323782E2B1ED1F7
:400D800063782A2B0AD1059B02341A1D1B680592002B01DA01235B42079310E000230A201A0001346B6021783039092904D84243013452180123F6E7002B00D00792234E0F
:400DC00021780322300000F0D9F9002806D04023801B83402A68013413432B60217806221B48661C297600F0C9F9002812D0194B002B06D10722059B0733934308330593C9
:400E000014E005AB00933A00134B2900029800E000BF07E005AB00933A000F4B2900029800F08AF80390039B013304D06B69039A9B186B6135E7BB890B985B0601D501200A
:400E400040421FB0F0BDC04600140000061400000A140000000000009D0B0000F7B5170001938A680B6900900C00934200DA130022003B6043321278002A01D001333B60D9
:400E800023689B0602D53B6802333B60062523681D401ED0230043331B785A1E9341226892061CD53020E1184331087021005A1C45310978A2184332023311700FE0220077
:400EC0000123193201990098089EB047431C0ED00135E3683A689B1A9D42F0DBDAE72200019943320098089DA847431C02D10120404220E006232068E1683A6803400025FE
:400F0000042B03D18D1AEB43DB171D40A3682269934201DD9B1AED180027BD420AD0220001231A3201990098089EB047431CDED00137F2E70020FEBDF0B58BB006920A00AB
:400F400043320793059004920A7E0C00109B6E2A00D1ABE011D8632A22D009D8002A00D1B5E0582A00D0C5E045310A70814A4FE0642A1DD0692A1BD0BCE0732A00D1AAE0BD
:400F800009D86F2A29D0702A00D0B3E0202209680A43226037E0752A1FD0782A33D0A9E00E001A684236111D196013683370A4E021681A68080606D4490604D5111D196059
:400FC0000023D55E02E0111D19601568002D3BDA2D23049A6D42137036E021681A68080606D4490604D51568111D1960ADB202E0111D196015685F4B227E039308276F2AD1
:401000001DD00A271BE022007821453211705A4A19680392081D226818600D68100602D4500600D5ADB2D30702D520231A4322601027002D03D1202322689A4322602300BE
:40104000002243331A7002E00A274A4B03936368A360002B09DB0422216891432160002D05D1049E002B11D07BE0002D79D0049E28003900FFF726FD039B013E5B5C2800D5
:4010800033703900FFF798FC051EF1D1082F09D12368DB0706D563682269934202DC3023013E3370049B9B1B23612BE009681A68080607D4490605D5111D19601368A28A17
:4010C0001A8004E0111D1960136862691A600023049E236116E01A68111D1960166800216268300000F04AF8002801D0801B6060636803E0260042363270012323610023CB
:40110000049A1370079B09AA00932100069B0598FFF7A4FE431C02D10120404227E02369320006990598079DA847431CF4D0236800259B070FD4099BE068984217DA18001F
:4011400015E022000123193206990598079EB047431CE1D00135E368099A9B1A9D42F0DBE9E72600039B42361B7833708EE70BB0F0BDC0461114000022140000C9B28218E9
:40118000904204D003788B4202D00130F8E700207047002310B59A4203D0CC5CC4540133F9E710BD10B5884202D98B18984201D3002305E09B1A013A08D3995C8154FAE797
:4011C000934203D0CC5CC4540133F9E710BD000070B50500002944D00C1F2368002B00DAE418280000F0D8F81E4A13681100002B02D16360146031E0A3420DD92268A018D9
:40120000834203D118685B688218226063600C6024E0A24203D813005A68002AF9D11E689819A0420BD12168711858181960824214D110685268411819605A600EE0A042D4
:4012400002D90C232B6009E021686018824203D1106852684118216062605C60280000F09CF870BD94010020032370B5CD1C9D43083506000C2D01D20C2501E0002D01DBC1
:40128000A94202D90C23336048E0300000F084F8234B1C681A002100002913D00B685B1B0DD40B2B02D90B60CC181EE08C4202D1636813601AE04B6863600C0016E00C0024
:4012C0004968E9E7174C2368002B03D1300000F051F820602900300000F04CF8431C18D00323C41C9C43A0420DD12560300000F054F8200007220B30231D9043C31A0ED0DB
:401300005A42E2500BE0211A300000F033F8431CEBD10C233000336000F03FF8002070BD9401002090010020F8B506000C001500002904D11100FFF797FF040018E0002AF2
:4013400003D1FFF745FF2C0012E000F027F885420ED929003000FFF787FF071E07D021002A00FFF716FF21003000FFF731FF3C002000F8BD002370B5064C050008002360AB
:40138000FFF70AF8431C03D12368002B00D02B6070BDC04698010020704770470B1F1A68101F002A04DA891804390B68D01804387047000000000000256C6C750000000016
:4013C0000D0A000000300F40000400400F400004030405060708090A0B0C0E0F101112131415161718191B1C1D1E1F2021222325262728292A2B2E2F30313233343543008D
:40140000232D302B2000686C4C00656667454647003031323334353637383941424344454600303132333435363738396162636465660000F8B5C046F8BC08BC9E467047F3
:401440006D01000011040000F8B5C046F8BC08BC9E4670474501000068140000C0000020880000005800000000000000A0010020010000000000E02EC05D0000180000009C
:4014800000366E01040404000000000000000000000000000000000000000000000000000000000000000000FE13000000000000000000000000000000000000000000006A
:4014C00000000000000000000000000000000000000000000000000000000000000000000000000000000000E00000200000000000000000000000000000000000000000EC
:4015000000000000000000000000000000000000000000000000000000000000000000000000000000000000000000000000000000000000000000000000000000000000AB
:40154000000000000000000000000000000000000000000000000000000000000000000000000000000000000000000000000000000000000000000000000000000000006B
:40158000000000000000000000000000000000000000000000000000000000000000000000000000000000000000000000000000000000000000000000000000000000002B
:4015C00000000000000000000000000000000000000000000000000000000000000000000000000000000000000000000000000000000000000000000000000000000000EB
:0200000490303A
:02000000B2B894
:0200000490402A
:200000000000000000000000000000000000000000000000000000000000000000000000E0
:0200000490501A
:0C000000000204C81193110104CEC44B8F
:0200000490600A
:0100000001FE
:00000001FF